{
  "author": "0x7bd89e22065e65fc9e2b8015e1119e53815f4fa9",
  "difficulty": "0x0",
  "extraData": "0x",
  "gasLimit": "0x989680",
  "gasUsed": "0x1a1933",
  "hash": "0x938752fb64673fce23ca299a6c6818669aea3de8889224c8bcf16a507a98b3c0",
  "logsBloom": "0x00400800000000800000000000040800000000000180001001000100800080000000402060020000000003002000000000040040000000008400020600140024040001020000001000000008000100002000000100800000000420820000004000020008060000000082010041002800080000000008000200080010000000004401000851000080000020000000000040000000000000001010000020600000410000220100000402080000000000002002820000000000000000000000000000000002000000100000000200141000010104080000110000440008004020001001000020000004000000000000100800000202100c00000080008010008080",
  "miner": "0x7bd89e22065e65fc9e2b8015e1119e53815f4fa9",
  "nonce": "0x0000000000000000",
  "number": "0x37c13aa",
  "parentHash": "0xa089c1c840b8c58470e5fb790e9f8fbeb12239fab19b22c8d59e2ed510093dbe",
  "receiptsRoot": "0x7814697e943a5fdaabea7dde1555dbf6fbd27a83f9e5b0fda4a4c1a815946dd5",
  "sha3Uncles": "0x1dcc4de8dec75d7aab85b567b6ccd41ad312451b948a7413f0a142fd40d49347",
  "size": "0xab3",
  "stateRoot": "0xce5f38c7cfd159516b2ae656cace439e7c1ac59884f5f118286e79a98d12dbee",
  "timestamp": "0x65c2c08f",
  "totalDifficulty": "0x0",
  "transactions": [
    {
      "accessList": null,
      "blockHash": "0x938752fb64673fce23ca299a6c6818669aea3de8889224c8bcf16a507a98b3c0",
      "blockNumber": "0x37c13aa",
      "chainId": "0x7d9",
      "creates": null,
      "from": "0x2ea765ad326d24851781fd7d81c4a7193d5dc903",
      "gas": "0x61a80",
      "gasPrice": "0x0",
      "hash": "0x807e0889673025c10dc0f95d35217e59b2f3acf98912a3eaba375fa15e3534d4",
      "input": "0xe3541348000000000000000000000000df76192480b1082a898063e32991fa5108247c860000000000000000000000000000000000000000000000000000000000f4240045303231373334343732303234303230363233323832374c506f4d5879504174",
      "nonce": "0xa73ad",
      "publicKey": "0xf2251d2f56cc48d79a2700d654e6e5763bf8bd6a33b2dc02ad104b0d255326bff6ae31289468adf0c9983b1b91d6d48d5564952b7930151788ac59526c36679a",
      "r": "0x4fe10abce1987e7bcc13d5b90837df22320b1aeb818fdd4d79ecf01b6b1fffbc",
      "raw": "0xf8ca830a73ad8083061a80941f94a163c329bec14c73ca46c66150e3c47dbedc80b864e3541348000000000000000000000000df76192480b1082a898063e32991fa5108247c860000000000000000000000000000000000000000000000000000000000f4240045303231373334343732303234303230363233323832374c506f4d5879504174820fd5a04fe10abce1987e7bcc13d5b90837df22320b1aeb818fdd4d79ecf01b6b1fffbca0036ec7073a863e863bd88301d75a7e19f182108f3624447b2d19fac43f110e0b",
      "s": "0x36ec7073a863e863bd88301d75a7e19f182108f3624447b2d19fac43f110e0b",
      "standardV": "0x0",
      "to": "0x1f94a163c329bec14c73ca46c66150e3c47dbedc",
      "transactionIndex": "0xb",
      "type": "0x0",
      "v": "0xfd5",
      "value": "0x0"
    }
  ],
  "transactionsRoot": "0xa4513dd3b91d6ed0b90c41701df5066dadd53efaeec189b972855a3131fa7b63",
  "uncles": []
}
